:020000040800F2
:1000000008050020A1010008FF1D00084F1D000881
:10001000FD1D00088F0900082920000800000000CD
:10002000000000000000000000000000031E0008A7
:10003000A909000800000000011E0008051E0008B4
:10004000BB010008BB010008BB010008BB010008A0
:10005000BB010008BB010008BB010008BB01000890
:10006000BB010008BB010008BB010008BB01000880
:10007000BB010008BB010008BB010008BB01000870
:10008000BB010008BB010008BB010008BB01000860
:1000900091090008BB0100089D090008BB01000888
:1000A000BB010008BB010008BB010008BB01000840
:1000B000BB010008BB010008BB010008BB01000830
:1000C000BB010008BB010008BB010008BB01000820
:1000D000BB010008BB010008BB010008BB01000810
:1000E000BB010008BB010008BB010008BB01000800
:1000F000BB010008BB010008BB010008BB010008F0
:10010000BB010008BB010008BB010008BB010008DF
:10011000BB010008BB010008BB010008BB010008CF
:10012000BB010008BB010008BB010008BB010008BF
:10013000BB010008BB010008BB010008BB010008AF
:10014000BB010008BB010008BB010008BB0100089F
:10015000BB010008BB010008BB010008BB0100088F
:10016000BB010008BB010008BB010008BB0100087F
:10017000BB010008BB010008BB0100080000000033
:10018000BB010008BB010008DFF810D000F0E8FB5D
:10019000004800470D250008AFF300800805002047
:1001A0000648804706480047FEE7FEE7FEE7FEE711
:1001B000FEE7FEE7FEE7FEE7FEE7FEE7811E00083A
:1001C000890100082DE9F041A2B01F46154600281C
:1001D00030D0002F2ED0CDE900150346F7A28021A4
:1001E00002A801F023FF040024D400200DF1080828
:1001F00012E0461CAE4201D2F7A100E0F7A1009147
:100200003B5CC4F1800108EB0400F5A201F00EFF95
:100210000444802C0ED2F0B2A84201D20828E8D3C0
:10022000C4F1800108EB0400EFA201F0FFFE02A878
:1002300000F0DFFA22B0BDE8F081F0B50646ADB0BF
:10024000EA4800F025FD0446E848006885698768AB
:10025000E64800F093FDCDE902703346E4A2A02108
:1002600004A8CDE9004501F0E1FE04A800F0C1FAC0
:100270002DB0F0BD70B5DD4E0025B6B031682C460E
:100280002A4611B10D684C68CA69E6490968CDE98A
:100290000321CDE90154716A03460091E24AC0216D
:1002A00005A801F0C3FE05A800F0A3FA36B070BDA2
:1002B000CE4810B5DD4901600221416000214FF4B4
:1002C00040228160C0E903124FF48012426101763E
:1002D000417681760122C27601774177D4A000F081
:1002E00088FAD0482038016841F000710160016847
:1002F00021F000710160BD4800F050FE20B1D3A094
:10030000FFF7B8FF00F07AFBBDE81040D6A0B1E7D8
:1003100030B587B004461421684600F0EFFAC349AF
:10032000206888423DD1D6A000F063FABD48002481
:10033000016841F000710160006800F000700590F4
:10034000B8481038016841F0010101600068D34DE0
:1003500000F0010005904FF4006000900220019031
:10036000012002900320039009200490694628464A
:1003700000F0C0FFA914009102946946284600F0DD
:10038000B9FF00220121142001F00EF9142001F020
:10039000FEF801221146162001F006F9162001F0A0
:1003A000F6F807B030BD10B50068A049884211D1F9
:1003B0009C48016821F0007101604FF4C051B748BA
:1003C00000F0E4FE142001F0D1F8BDE81040162042
:1003D00001F0CCB810BD70B588B00D4606461821A6
:1003E000684600F08BFAA5B10020CDE90060082135
:1003F0000290CDE903018DF814007C4800F06AFEFC
:1004000006AB2A466946794800F04DFB20B1A4A00E
:100410001FE0012008B070BD01F048F804460DE06F
:1004200001F044F8001B322808D37048069900F008
:1004300005FBA1A0FFF701FF0320EBE76B4806993E
:1004400000F039FE0028EBD1684800F021FC18B11B
:100450009FA0FFF7F2FEDCE764482B461C38082219
:100460008188491C81803146A0A0FFF7ABFE0020A7
:10047000D0E72DE9FC4700270C463E463D46B946ED
:10048000B846002842D0002C40D0816800293DD1D8
:100490000168A1F54072023A38D1DFF850A1227804
:1004A000AAF11C0A23468AF8002062788AF8022002
:1004B000BAF80620521CAAF80620027C01688DA01A
:1004C000FFF780FE20786178012821D0022822D011
:1004D000032829D0E0278AF80170002400948DF8C1
:1004E000000001948DF801108DF804608DF8027001
:1004F00002208DF805508DF803008DF806908DF8D8
:100500000780694640F20220FFF765FFBDE8FC87DF
:10051000A5260225DFE7BAF808209AF80490D6B29B
:10052000150A9AF80680D6E76288642A01D2E12784
:10053000D1E7CAF80C20A678E578CCE710B58AB0E8
:100540002821684600F0DAF928482821443800F0CC
:10055000D5F926481C211C3800F0D0F9234C4FF463
:100560007A701C3CE06000F0A1FF20610020606117
:10057000A0610121CDE90601059000900190029053
:10058000039004900E20CDE908106946174800F04A
:10059000F9FA040001D059A0CDE0144800F0B0FDF4
:1005A000040001D05EA0C6E048F602710F4800F0DA
:1005B00068FA040000D0BDE0C2E0000025732049C5
:1005C000443D30782530336C5820444C433D2575EC
:1005D00020444154413D0000200000000000000084
:1005E00025303258257300000D0A00005C00002001
:1005F0002573206572723D30782530386C5820653F
:1006000073723D30782530386C58207473723D30E9
:10061000782530386C582073746174653D256C758D
:100620000D0A000040380240C42600080064004063
:10063000424F4F543A204D585F43414E315F496E0F
:10064000697420656E7465720D0A0000424F4F5444
:100650003A2048414C5F43414E5F496E69742066C1
:1006600061696C6564000000424F4F543A20484174
:100670004C5F43414E5F496E6974206F6B00000010
:10068000424F4F543A2043414E204D535020696E03
:10069000697420656E7465720D0A000000000240E6
:1006A00043414E20545820656E717565756520660E
:1006B00061696C656400000043414E20545820700D
:1006C000656E64696E672074696D656F757400008E
:1006D00043414E20545820636F6D706C657465649F
:1006E0002077697468206572726F720043414E20F2
:1006F0005458000043414E205258000043414E20C0
:1007000066696C74657220636F6E66696775726185
:1007100074696F6E206661696C65640D0A00000083
:1007200043414E207374617274206661696C656424
:100730000D0A000046A000F05CF820460AB010BD8B
:100740004C4800F0C7FC4C4800F053F80020F5E797
:1007500010B5484C443C94F8240038B104F11C0115
:100760002046FFF786FE002084F8240000F09EFE5D
:10077000404C1C3C2169401AE168884206D300F0D5
:1007800095FE2061BDE8104000F038B810BD10B5EE
:10079000002812D0394A016891420ED1354C00210F
:1007A000443C04F11C03E1612246216200F072FA2C
:1007B000002802D1012084F8240010BD10B50400E7
:1007C00016D02E492068884212D1204600F060FAE7
:1007D00021688969274A1C3A5369834202D1936987
:1007E0008B4205D0C2E90501BDE8104024A024E5F4
:1007F00010BD002801D000F0F1B870471CB50020F2
:100800001C4C0090019002201C3C8DF800002089B7
:100810008DF80100000A8DF8020020788DF80300A1
:1008200060788DF8040020798DF80500A0798DF8A6
:100830000600104800F02CFA8DF807002089694660
:10084000401C20814FF48170FFF7C5FD1CBD0000E6
:1008500043414E205258206E6F746966696361741B
:10086000696F6E20656E61626C65206661696C659A
:10087000640D0A005C0000200C27000800640040A2
:1008800043414E204552524F520000002DE9F05F87
:100890000546002092469B468846064681464024EF
:1008A0001BE0284641464746224600F048F853469A
:1008B0005A46C01A914110D311461846224600F0FC
:1008C0002FF82D1A67EB01084F4622460120002120
:1008D00000F026F817EB00094E41201EA4F1010498
:1008E000DFDC484631462A464346BDE8F09FD2B297
:1008F00001E000F8012B491EFBD270470022F6E709
:1009000010B513460A4604461946FFF7F0FF204685
:1009100010BD421C10F8011B0029FBD1801A704742
:10092000202A04DB203A00FA02F1002070479140AF
:10093000C2F1200320FA03F3194390407047202AA4
:1009400004DB203A21FA02F00021704721FA02F379
:10095000D040C2F120029140084319467047000080
:10096000064C074D06E0E06840F0010394E80700FC
:1009700098471034AC42F6D3FFF70AFC5027000822
:1009800070270008002801D000F028B87047FEE763
:10099000014800F005BA00005C000020014800F0AA
:1009A000FFB900005C000020704770B504000D46E0
:1009B00013D0002D11D0206800280ED094F83900F3
:1009C00000280AD00846FFF7A4FF82B22946204635
:1009D000BDE87040642301F05DB970BD10B50446F8
:1009E00001460548FFF7E1FF21460348BDE81040F6
:1009F0004030FFF7DABF0000840000204FF4FA74A3
:100A000003A0FFF7BFFF204600F0AEFBF8E70000B1
:100A10004552524F523A2068616E646C657220658F
:100A20006E7465726564205B323032362D30352D40
:100A300032302031313A32305D0D0A0090F82020FA
:100A4000012A07D0022A05D0416A41F4802141627F
:100A500001207047CA0704D00268936843F08003FE
:100A600093608A0704D50268936843F40043936057
:100A7000490704D50068816841F4000181600020C5
:100A8000704790F82020012A07D0022A05D0416A39
:100A900041F48021416201207047006842690A43A5
:100AA000426100207047F0B590F820500468A468B7
:100AB000012D05D0022D03D0416A41F480215DE073
:100AC00014F0406F01D1E50055D5C4F30164022C48
:100AD00003D9416A41F4000150E00125A5401D60A1
:100AE0008D684FF4C0739DB1CE6835434E6845EABA
:100AF000C605066803EB0417F5514FF4C275076885
:100B000005EB04150E697E51097D012905D009E028
:100B10000E88CD6845EA4655EBE701684E5946F424
:100B200080764E511179D579567941EA05619579EA
:100B30002D0445EA062529434FF4C676056806EBE1
:100B40000416A9511178D57841EA05619578527853
:100B50002D0445EA022211434FF4C475026805EBE7
:100B600004155151006803EB0411425842F0010290
:100B700042500020F0BD416A41F400114162012061
:100B8000F0BD000010B590F82020012A07D0022AFD
:100B900005D0416A41F480214162012010BD3B48EB
:100BA000D0F8002242F00102C0F80022D0F8002262
:100BB00022F47C52C0F80022D0F800224B6A42EAAC
:100BC0000322C0F800220A7D02F01F0301229A408E
:100BD000D0F81C329343C0F81C32CB69B3B9D0F8BB
:100BE0000C329343C0F80C328C894B6864F31F437A
:100BF0004C6900EBC404C4F840320C890B6864F300
:100C00001F434C6900EBC404C4F84432CB69012B88
:100C100016D1D0F80C321343C0F80C320C884B6854
:100C200064F31F434C6900EBC404C4F840320C89E0
:100C3000CB6864F31F434C6900EBC404C4F844322E
:100C40008B69002BD0F804320ED01343C0F8043265
:100C50000B69002BD0F8143208D01343C0F81432BB
:100C6000096A012904D008E09343EFE79343F5E7CD
:100C7000D0F81C121143C0F81C12D0F8001221F059
:100C80000101C0F80012002010BD00000064004007
:100C9000406A704730B590F82040012C05D0022CF6
:100CA00003D0416A41F480215DE00468002955D0F9
:100CB0002469A40754D04FF4D874056804EB0114D8
:100CC0002D5915F00405956005682D594ED0ED0895
:100CD000556005682C5904F00204D4604FF4DA74AE
:100CE000056804EB01142D5905F00F051561056821
:100CF0002D59C5F30725956105682C59240C5461BD
:100D00004FF4DC72046802EB0112A4581C700468F2
:100D1000A458240A5C700468A458240C9C700468CD
:100D2000A258120EDA704FF4DE72046802EB011260
:100D3000A4581C710468A458240A5C710468A4585F
:100D4000240C9C710468A258120EDA71006881B1FB
:100D5000016941F020010161002030BDE468A8E78D
:100D6000416A41F400114162012030BD6D0D1560F2
:100D7000AFE7C16841F02001C160EDE7014690F89E
:100D80002000012801D0022804D109684A6892078E
:100D900001D50420704709688907FBD503207047F7
:100DA0002DE9F05F0546006800244669D0F80490FC
:100DB0008768D0F80CB0D0F810A0D0F81880F107F0
:100DC00048D0F90714D001218160B80703D528461F
:100DD00000F0C3F90CE0780702D54FF4006407E097
:100DE000380702D54FF4805402E0284600F0B4F9E9
:100DF000F80516D529684FF480708860B80503D5CA
:100E0000284600F0ACF90CE0780502D544F4005413
:100E100007E0380502D544F4804402E0284600F09B
:100E20009DF9F80316D529684FF480308860B8031F
:100E300003D5284600F095F90CE0780302D544F478
:100E4000004407E0380302D544F4803402E0284629
:100E500000F086F9300707D55FEACB6004D5296832
:100E6000102044F40074C86070074FF0080707D5DD
:100E70005FEA0B7004D52868C760284600F03BF98C
:100E8000B00706D52868C068800702D02846FFF75B
:100E90007EFC700607D55FEACA6004D52968102079
:100EA00044F480640861B00607D55FEA0A7004D58F
:100EB00028680761284600F01FF9F00606D5286863
:100EC0000069800702D0284600F017F9B00308D562
:100ED0005FEAC96005D5296810204860284600F0FF
:100EE0000DF9F00307D55FEA097004D5286847605B
:100EF000284600F037F9300446D55FEA497040D5FE
:100F0000F00504D55FEAC87001D044F00104B005D3
:100F100004D55FEA887001D544F00204700504D559
:100F20005FEA487001D544F00404300529D518F073
:100F3000700F26D008F07000402815D006DC10286D
:100F400009D020280AD0302816D10AE050280ED027
:100F5000602811D10EE044F008040DE044F01004C4
:100F60000AE044F0200407E044F0400404E044F0C8
:100F7000800401E044F480742868816921F07001E4
:100F80008161296804204860002C05D0686A2043EC
:100F900068622846FFF712FCBDE8F09F70B50400B8
:100FA00003D094F8200010B104E0012070BD204669
:100FB000FFF7AEF92068016821F00201016000F03E
:100FC00075FA0546052604E000F070FA401B0A2871
:100FD00011D8206840688007F6D42068016841F085
:100FE0000101016000F062FA05460BE000F05EFAD4
:100FF000401B0A2806D9606A40F40030606284F819
:101000002060D2E720684068C007EFD0207E01282A
:10101000206801683DD021F080010160607E0128D8
:101020002068016838D021F040010160A07E0128CD
:101030002068016833D021F020010160E07E0128A2
:10104000206801682ED041F010010160207F012846
:101050002068016829D021F008010160607F012823
:101060002068016824D021F004010160D4E9020164
:101070000843D4E90412114308436168491E084338
:101080002168C86100206062012084F820000020EF
:1010900070BD41F08001C0E741F04001C5E741F07B
:1010A0002001CAE721F01001CFE741F00801D4E7A1
:1010B00041F00401D9E70346002093F82020012ADB
:1010C00001D0022A05D11A6889069268914300D09E
:1010D0000120704790F820200021012A08D0022A20
:1010E00006D0416A41F480214162012108467047DF
:1010F00000224262FAE7704770477047704700006D
:1011000070B5044690F82000012804D0606A40F4CD
:101110000020606218E0022084F820002068016846
:1011200021F00101016000F0C1F905460EE000BFA9
:1011300000F0BCF9401B0A2808D9606A40F400306E
:101140006062052084F82000012070BD206840689E
:10115000C007EDD1606270BD70477047704770473F
:10116000704770477047000070B5044600F09EF964
:101170000546601C02D004480078044400F096F94B
:10118000401BA042FAD370BD080000202DE9F04FAB
:101190000022DFF838B101264FF00F0906FA02F4F9
:1011A00001EA0403A3427DD122F003075F44D7F88C
:1011B000088895074FEA157C09FA0CFA0AEA08052F
:1011C000DFF80C81404502D14FF0000832E0DFF833
:1011D0000481404502D14FF001082BE0DFF8F88090
:1011E000404502D14FF0020824E0DFF8F08040458E
:1011F00002D14FF003081DE0DFF8E480404502D142
:101200004FF0040816E0DFF8DC80404502D14FF0D3
:1012100005080FE0DFF8D080404502D14FF0060806
:1012200008E0DFF8C880404502D14FF0070801E030
:101230004FF0080808FA0CF8A84522D12C4DD5F833
:1012400000C02CEA030CC5F800C005F1040CDCF862
:1012500000509D43CCF800500CF10405D5F800C0B7
:101260002CEA030CC5F800C02D1DD5F800C02CEAEF
:10127000030CC5F800C0D7F8085825EA0A05C7F8D6
:101280000858056857000323BB409D430560D508F7
:1012900000EB8505D5F820C057074FEAD76809FA53
:1012A00008F700E00CE02CEA070CC5F820C0C56880
:1012B0009D43C5604568A543456084689C43846040
:1012C000521C102AFFF46AAFBDE8F08F00300140D5
:1012D000000002400004024000080240000C0240EE
:1012E000001002400014024000180240001C02409E
:1012F000003C01402DE9F84F00224FF00108032582
:101300004FF00F0E0B6808FA02F42340A3426ED18F
:101310004E68012E05D0022E03D0112E01D0122EC0
:1013200012D186684FEA420C05FA0CF7BE43CF682B
:1013300007FA0CF7374387604668A6430C79C4F375
:101340000014944034434460C668570005FA07FC13
:101350008C6826EA0C06BC403443C4604C68022CFE
:1013600001D0122C13D1D40800EB8404A346D4F886
:10137000209054074FEAD46A0EFA0AF629EA0609C1
:101380000E6906FA0AF646EA0906CBF820600668F6
:101390000C7926EA0C0604F00304BC4034430460D4
:1013A0004C68E40065D5364C266846F480462660D5
:1013B000246822F0030604F480440094314C344441
:1013C000A446D4F808489607370F0EFA07F6B44338
:1013D0002D4EB04201D1002624E02C4EB04201D166
:1013E00001261FE02A4EB04202D102261AE040E058
:1013F000284EB04201D1032614E0274EB04201D15D
:1014000004260FE0254EB04201D105260AE0244E05
:10141000B04201D1062605E0224EB04201D1072696
:1014200000E00826BE402643CCF808681E4E34680B
:101430004F689C43FF0300D51C4334601A4C241DA5
:1014400026684F689E43BF0300D51E432660164E94
:10145000083634684F689C43FF0200D51C43346053
:10146000114E0C3634684F689C43BF0200D51C43B4
:101470003460521C102AFFF445AFBDE8F88F00001D
:1014800044380240003001400000024000040240A5
:1014900000080240000C024000100240001402400C
:1014A00000180240001C0240003C014001488068D6
:1014B000704700000800002002488168027811444B
:1014C00081607047080000200B4810B5016841F4A6
:1014D00000710160016841F480610160016841F4BC
:1014E00080710160032000F07FF8002000F006F812
:1014F00000F024F8002010BD003C024070B50D4DF6
:1015000004464FF47A712878B1FBF0F00A49096873
:10151000B1FBF0F000F014FB48B9102C07D2002208
:101520002146501E00F040F800206C6070BD012084
:1015300070BD000008000020140000200A4808B513
:10154000016841F480410160006800F4804000902F
:101550000548001F016841F080510160006800F0FB
:101560008050009008BD00004438024000280DDB88
:1015700000F01F02012191404009800000F1E020AD
:10158000C0F88011BFF34F8FBFF36F8F70470028F3
:1015900009DB00F01F02012191404009800000F1A9
:1015A000E020C0F800117047F0B40E4B1B680C46E9
:1015B000C3F30223C3F10705042D00D90425191D27
:1015C000072901D2002300E0DB1E012606FA05F1FF
:1015D000491E214099409E40761E16403143F0BC82
:1015E00000F03EBD0CED00E0064900F0070208687F
:1015F0004FF6FF03184040EA0220034A10430860F8
:10160000704700000CED00E00000FA052DE9F047FE
:101610000E46050065D0DFF81481D8F80000F7B257
:1016200000F00F00B04207D288F80070D8F8000030
:1016300000F00F00B04254D128683D4C810712D50C
:10164000400703D5206840F4E05020602878000768
:1016500003D5206840F4604020602068A96820F02D
:10166000F000084320602878C0072DD03049686812
:101670000839012812D0022813D0032811D0096894
:10168000890700292DDA216821F003010143216037
:10169000FFF70CFF814641F2883A0EE009688903A2
:1016A000EFE709688901ECE7FFF700FFA0EB09010C
:1016B000514502D90320BDE8F0872068696800F031
:1016C0000C00B0EB810FEFD1D8F80010404601F0CC
:1016D0000F01B14207D90770006800F00F00B04257
:1016E00001D00120E7E72878400705D52068E968A0
:1016F00020F4E050084320602878000706D52068D1
:10170000296920F4604040EAC100206000F038F808
:101710002168084AC1F30311515CC84006490860BA
:1017200006480068FFF7EAFE0020C4E7003C0240DC
:1017300008380240AC260008140000200C000020ED
:101740000448054900680968044AC1F38221515CD4
:10175000C84070471400002008380240BC2600082A
:101760000448054900680968044AC1F34231515CE4
:10177000C84070471400002008380240BC2600080A
:10178000154810B5006810F00C02144813D0144925
:10179000042A0FD0082A0ED10F4C241F2268236878
:1017A00002F03F025B0207D52068C0F38810A0FB5F
:1017B000010106E0084610BD2168C1F38811A1FBB4
:1017C00000010023FFF762F82168C1F30141491CC1
:1017D0004900B0FBF1F010BD083802400024F400CD
:1017E00040787D012DE9F84F04006ED02078DFF8B5
:1017F0003C93C007A9F104054AD009F1040001682F
:10180000C1F38101012908D00068C0F381000228DA
:101810000AD1D9F80000400206D52868800337D5E0
:1018200060680028E1D033E06068B0F5803F10D0F8
:10183000B0F5A02F286810D020F4803028602868E8
:1018400020F4802028606068A8B1FFF72FFE0646CC
:101850000DE0286840F48030F4E740F480202860F0
:10186000F7E700BFFFF722FE801B642873D82868C3
:101870008003F7D50CE0FFF719FE064605E000BF30
:10188000FFF714FE801B6428F0D828688003F7D483
:101890002078DFF89C8280074FF0000A3ED5A348ED
:1018A000001D016811F00C0F08D00068C0F3810022
:1018B00002280BD1D9F80000400207D4286880071D
:1018C00016D5E068012800D112E02BE1E068B8B13C
:1018D0000120C8F80000FFF7E9FD064605E000BF5B
:1018E000FFF7E4FD801B0228C0D828688007F7D5E1
:1018F0002868216920F0F80040EAC10028600DE066
:10190000C8F800A0FFF7D2FD064604E0FFF7CEFDC1
:10191000801B02281FD828688007F7D4207800078A
:1019200022D5824E83486169703671B10121016010
:10193000FFF7BCFD074604E0FFF7B8FDC01B022817
:1019400009D830688007F7D50EE0C0F800A0FFF78F
:10195000ADFD074605E082E0FFF7A8FDC01B0228A9
:101960007DD830688007F7D42078400768D5DFF845
:10197000BCB100270BF13C0BDBF80000C0000BD41E
:10198000DBF8001041F08051CBF80010DBF80000CC
:10199000012700F080500090674E3068C00510D4D9
:1019A000306840F480703060FFF780FD009005E003
:1019B000FFF77CFD0099401A022850D83068C00516
:1019C000F6D55A4EA0686C3601280FD0052830682D
:1019D00010D020F001003060306820F0040030604A
:1019E000A068B8B1FFF762FD00900FE0306840F0EA
:1019F0000100F4E740F004003060F7E7FFF756FD20
:101A00000099411A41F28830814266D830688007D7
:101A1000F4D50EE0FFF74AFD009007E0FFF746FD22
:101A20000099411A41F28830814256D830688007C7
:101A3000F4D42FB1DBF8001021F08051CBF8001066
:101A4000A069C8B33949091D0968C1F38101022998
:101A50004AD00228504607D0C8F8600000E03CE0B9
:101A6000FFF724FD04463BE04746C8F86000FFF757
:101A70001DFD064605E000BFFFF718FD801B02288C
:101A80002BD828688001F7D4D4E907010843A16A5C
:101A90002A4A490802EB0141626A41EA821108437D
:101AA00094F82C1040EA0161C9F800100120386652
:101AB000FFF7FCFC044606E036E000BFFFF7F6FC4B
:101AC000001B022809D828688001F7D52CE000BF48
:101AD000FFF7ECFC001B022802D90320BDE8F88FB9
:101AE00028688001F4D41FE00128F7D0D9F800005D
:101AF000E26900F48001914214D1226A00F03F01B2
:101B000091420FD147F6C071626A0140914209D1FA
:101B1000A26A00F44031914204D1E16A00F07060A1
:101B2000884201D00120D9E70020D7E704380240DD
:101B300000004742800E4742007000400000FFFF57
:101B400010B5401EB0F1807F01D3012010BD4FF0D1
:101B5000E02460610F21601700F082FA0020A0618C
:101B600007202061002010BD70B5040004D094F857
:101B70003900002510B106E0012070BD84F838500E
:101B8000204600F023F8242084F839002068C1683A
:101B900021F40051C160204600F080F920680169FD
:101BA00021F4904101612068416921F02A014161DD
:101BB0002068C16841F40051C160E563202084F8C9
:101BC000390084F83A00002070BD0000F0B587B0FD
:101BD000044614216846FEF791FE284A21682848E9
:101BE000022401250326914219D1254914310A689E
:101BF00042F010020A60096801F0100105910168C5
:101C000041F0010101600068694600F001000590A3
:101C100070028DE87100072004901A482AE01A4AE1
:101C2000914229D1164910310A6842F480120A60A3
:101C3000096801F480110591016841F00401016017
:101C4000016801F004010591016841F0080101609B
:101C50000068082700F0080005904FF480508DE8D8
:101C6000F10069460948FFF745FB04208DE8F100C3
:101C700069460748FFF73EFB07B0F0BD0010014082
:101C8000303802400000024000500040000802408E
:101C9000000C02402DE9F843044690F839001F4635
:101CA00016460D46202850D1B5B1AEB194F8380093
:101CB00001284AD0012084F838004FF00008C4F809
:101CC0003C80212084F83900FFF7F0FBA684814690
:101CD000E68484F8388026E00120BDE8F883E08CB3
:101CE000401EE084A0684B46B0F5805F4FF00002D4
:101CF0004FF080012046009703D000F063F9E8B967
:101D00000DE000F05FF9C8B928882168C0F3080029
:101D10004860206908B16D1C05E0AD1C03E0216836
:101D200015F8010B4860E08C0028D8D14B46002202
:101D300040212046009700F045F908B10320CCE788
:101D4000202084F839000020C7E70220C5E7FEE71D
:101D50000D4808B5016841F001010160016801F01A
:101D600001010091016841F004010160016801F086
:101D700004010091016841F008010160006800F071
:101D80000800009008BD0000303802400C4810B533
:101D90000A4901604FF4E1314160002181600C2269
:101DA000C160C0E904128161C161FFF7DDFE002856
:101DB00003D0BDE81040FEF721BE10BD005000402A
:101DC000C40000200C4810B50A4901604FF4E1310D
:101DD0004160002181600C22C160C0E90412816170
:101DE000C161FFF7C1FE002803D0BDE81040FEF737
:101DF00005BE10BD0010014084000020FEE77047C2
:101E000070477047FFF758BB10B592B03021684655
:101E1000FEF774FD14210CA8FEF770FD164800248F
:101E2000016841F080510160006800F0805011901D
:101E30001248016841F4804101600068069400F492
:101E40008040119002200090012003901020049007
:101E50006846FFF7C7FC58B90F20CDE90C040E9473
:101E60000F9400210CA81094FFF7D0FB002801D09C
:101E7000FEF7C4FD12B010BD4038024000700040B3
:101E80000548016841F47001016003494FF00060AA
:101E9000803908607047000088ED00E02DE9F041CE
:101EA000044600680169E26821F440511143016170
:101EB0002169A068E2690843616911430843216808
:101EC000CA6849F20C639A430243CA6020684169B8
:101ED000A26921F4407111434161E0691927642529
:101EE0003226B0F5004F354A354920684FF00008DA
:101EF00006D0884201D0904236D1FFF731FC35E060
:101F0000884201D0904202D1FFF72AFC01E0FFF79E
:101F100017FC61684A18A0FB070148EB0803FEF7AD
:101F2000B5FC0146B0FBF5F00201B1FBF5F06FF036
:101F30001803584301EB800006EBC000B0FBF5F03E
:101F400000F0F80002EB4002B1FBF5F0584301EB62
:101F5000800006EBC000B0FBF5F000F00700216840
:101F600010448860BDE8F081FFF7EAFB61688B0FE1
:101F70008A00A0FB0701FEF789FC0146B0FBF5F0E3
:101F80006FF01802504301EB800006EB0010B0FB2D
:101F9000F5F000F0F002B1FBF5F002EB0012B1FB3E
:101FA000F5F06FF01803584301EB800006EB0010CA
:101FB000B0FBF5F000F00F00D1E700000014014085
:101FC000001001402DE9F041984617460E460446A0
:101FD000069D1DE0681C1BD02DB1FFF767FAA0EB32
:101FE0000800A84214D92068C16821F4D071C160EA
:101FF0002068416921F001014161202084F8390005
:1020000084F83A00002084F838000320BDE8F0810D
:102010002068006836EA000004D00020B842D9D019
:102020000020F3E70120F9E7FEE700000FB47CB5DC
:102030000C0009AD01D0611E00E00021CDE90001D6
:10204000064B6A462946089800F02AF8002C02D070
:10205000009A002111707CBC5DF814FBF724000885
:102060000907090E002804DB00F1E02080F80014C5
:10207000704700F00F0000F1E02080F8141D704759
:1020800002E008C8121F08C1002AFAD17047704741
:10209000002001E001C1121F002AFBD1704700009F
:1020A0002DE9FF4F8DB00F460546002606E0252896
:1020B0000BD0DDE90F1290476D1C761C28780028A4
:1020C000F5D111B03046BDE8F08F0024A246A146FC
:1020D0000122E94900E0044315F8013F203B02FAE0
:1020E00003F00842F7D128782A2810D06FF02F0289
:1020F0002878A0F13001092914D80AEB8A0102EBF3
:10210000410144F0020400EB010A6D1CF0E701CF2D
:102110005FEA000A03D544F40054CAF1000A44F00F
:1021200002046D1C28782E2817D115F8010F44F0F1
:1021300004042A280ED06FF02F022878A0F1300175
:1021400009290AD809EB890102EB410100EB0109D9
:102150006D1CF2E757F8049B6D1C28786C280FD093
:1021600006DC4C2817D068280DD06A2814D104E06A
:10217000742810D07A280FD10DE044F400140AE03E
:1021800044F4801401E044F440146978814202D19F
:1021900004F580146D1C6D1C28786E281ED00CDC94
:1021A000632830D004DC00288BD0582811D19FE060
:1021B000642867D069280CD164E073282DD004DC32
:1021C0006F2872D0702804D194E075286ED07828DA
:1021D0006DD0DDE90F129047761C4BE1C4F302503D
:1021E000022806D0032809D0042801CF09D00660B0
:1021F00040E101CFF117C0E900613BE101CF06806A
:1022000038E1067036E117F8040B8DF80000002065
:102210008DF80100EB46012003E057F804BB4FF0B6
:10222000FF3061074FF0000102D40DE008F1010119
:10223000884649450FDA8045F8DB1BF8081000296D
:10224000F4D108E008F1010188468142FADB1BF86D
:1022500008100029F6D1DDE90F23AAEB080081461A
:10226000214600F031F9304400EB080604E0DDE9D6
:102270000F121BF8010B9047B8F10108F7D2214665
:102280004846F2E00A21C4F302524FF0000B0891D5
:10229000022A04D001CFC117032A09D00AE0FF1D8A
:1022A00027F00707F7E8020108E02CE01EE01FE036
:1022B00000B2C117042A01D140B2C117021E71F148
:1022C000000206DA0023D0EB030063EB01012D22AC
:1022D00002E0220504D52B228DF82420012203E000
:1022E000E20701D02022F7E7904653E00A210BE0F5
:1022F000102109E010214FF0000B44F004044FF0CE
:102300000809089103E008214FF0000B0891C4F37D
:102310000252022A04D001CF0021032A06D006E08F
:10232000FF1D27F00707F7E8020103E080B2042A47
:1023300000D1C0B24FF0000822072BD52A78702AAE
:1023400007D0DDF820C08CF0100C5CEA0B0C05D037
:102350000EE040228DF82420012208E050EA01031B
:1023600006D030238DF824308DF8252002229046A7
:10237000089B83F0080353EA0B030BD150EA0102D8
:1023800001D1620706D530228DF824204FF00108D4
:10239000A9F101092A78582A04D038A20B9208AA78
:1023A0000A920BE03AA2F9E75B46089AFEF76EFA4A
:1023B0000B9B9B5C0A9A521E0A92137050EA010210
:1023C000F2D10A98ADEB000000F1200B600702D5B6
:1023D00024F4803401E04FF00109D94502DDA9EB76
:1023E0000B0000E0002000EB0B0141440890AAEB39
:1023F000010AE00306D4DDE90F232146504600F030
:1024000063F806444FF0000908E009A911F8090033
:10241000DDE90F12904709F10109761CC145F4DB93
:10242000E0030CD5DDE90F232146504600F04CF8BF
:10243000064404E0DDE90F1230209047761C08992D
:10244000481E08900029F5DC08E00A980A990078EF
:10245000491C0A91DDE90F129047761CBBF100017F
:10246000ABF1010BF1DC21465046DDE90F2300F012
:1024700019F806446D1C21E6092801003031323379
:1024800034353637383961626364656600000000B0
:10249000303132333435363738394142434445469A
:1024A000000000002DE9F041044600251E461746B5
:1024B000880404D405E039462020B0476D1C641E12
:1024C000F9D52846BDE8F0812DE9F0410446002504
:1024D0001E469046C80301D5302700E02027880417
:1024E00004D505E041463846B0476D1C641EF9D559
:1024F0002846BDE8F0814A68002A06D00A68531CC5
:102500000B6010704868401E486070478CB0FEF742
:10251000DBFFFFF779FCFFF71BFCFFF753FC1CA068
:10252000FEF730FAFFF732FC1FA0FEF72BFA29A0C6
:10253000FEF728FA34A0FEF725FA3DA0FEF722FAAE
:10254000FDF7B6FEFDF7FAFF20B143A0FEF71AFA39
:10255000FEF754FA48A0FEF715FA4FF47A754D4C81
:10256000FEF7A4FF2168411AA9420BD320606368DB
:1025700049A2581C606030216846FFF757FD684645
:10258000FEF72CFAFEF7E4F80A20FEF7EDFDE7E788
:10259000424F4F543A205553415254312072656195
:1025A00064790D0A00000000424F4F543A20484120
:1025B0004C20696E697420646F6E65205B32303226
:1025C000362D30352D32302031313A32305D0D0A22
:1025D00000000000424F4F543A2073797374656DC8
:1025E00020636C6F636B20636F6E666967757265DD
:1025F00064205B323032362D30352D32302031318F
:102600003A32305D0D0A0000424F4F543A20475095
:10261000494F207265616479205B323032362D304B
:10262000352D32302031313A32305D0D0A00000054
:10263000424F4F543A2055415254352072656164DF
:1026400079205B323032362D30352D323020313129
:102650003A32305D0D0A0000424F4F543A20434158
:102660004E206C696E6B20696E6974206661696CBE
:1026700065640D0A00000000424F4F543A20434168
:102680004E206C696E6B20696E6974206F6B0D0A49
:10269000000000000000002044424720484541520D
:1026A000544245415420256C750D0A00000000007D
:1026B00000000000010203040607080900000000F2
:1026C000010203042573206572723D30782530388D
:1026D0006C58206D63723D30782530386C58206D11
:1026E00073723D30782530386C58206274723D30FA
:1026F000782530386C582061706231656E723D30DB
:10270000782530386C580D0A0000000043414E20F7
:102710006C696E6B2072656164793A203530306B7C
:102720006270732C206E6F64653D307830322C20DF
:102730005258204649464F3020696E746572727552
:10274000707420656E61626C65640D0A00000000A3
:1027500070270008000000201800000080200008FA
:102760008827000818000020F004000090200008CE
:102770000000000000000000010000001000000048
:08278000000000000024F40039
:040000050800018965
:00000001FF
